:100000000C9465000C9483090C94B0090C948D0039
:100010000C948D000C948D000C948D000C948D002C
:100020000C948D000C948D000C948D000C948D001C
:100030000C948D000C948D000C948D000C948D000C
:100040000C94DD090C948D000C94B70B0C94050CEA
:100050000C948D000C948D000C948D000C948D00EC
:100060000C948D140C948D000000000024002700D7
:100070002A0000000000250028002B0000000000DE
:1000800023002600290004040404040404040202DA
:100090000202020203030303030301020408102007
:1000A0004080010204081020010204081020000012
:1000B0000007000201000003040600000000000029
:1000C00000004207710D30113B0711241FBECFEF16
:1000D000D8E0DEBFCDBF11E0A0E0B1E0E4E9F1E39C
:1000E00002C005900D92A03FB107D9F714E0A0EF30
:1000F000B1E001C01D92AE34B107E1F710E0C8ECE9
:10010000D0E004C02297FE010E94B918C23CD1077A
:10011000C9F70E9472080C948F000C940000F894A8
:100120000C94BD18FB01DC0102C001900D924150FE
:100130005040D8F70895FB01DC0101900D9200209A
:10014000E1F70895FB01DC014150504048F0019077
:100150000D920020C9F701C01D9241505040E0F7B8
:100160000895FB0151915523A9F0BF01DC014D9188
:1001700045174111E1F759F4CD010190002049F0F4
:100180004D9140154111C9F3FB014111EFCF81E0C1
:1001900090E001970895FC018BEC91E091838083BE
:1001A00042835383648375830895EF92FF920F9384
:1001B0001F937C018B0188E2FB0111928A95E9F77C
:1001C000CB0160E071E04BE050E00E94A200F8013A
:1001D000138681E090E0A0E0B0E084879587A68751
:1001E000B787F70182819381A481B581F801808B63
:1001F000918BA28BB38B86E090E0A0E0B0E0848B83
:10020000958BA68BB78B14A215A216A217A280E01D
:1002100090E0A6E9B3E4808F918FA28FB38F80E046
:1002200090E8A9E8B4E4848F958FA68FB78F8AE011
:1002300097EDA3E2BCE380A391A3A2A3B3A31F9174
:100240000F91FF90EF900895EF92FF920F931F93FD
:10025000182F062F82EDE82E83E0F82EC70167E7FE
:100260000E94F610C701612F0E947811C701602F0C
:100270000E947811C7010E94BB111F910F91FF903E
:10028000EF900895CF92DF92FF920F931F93F82E75
:100290006B0102ED13E0C80167E70E94F610C80188
:1002A0006F2D0E947811C8010E94BB11C80167E739
:1002B00042E00E94CC11C8010E940911F82EC80129
:1002C0000E9409113F2D20E0282B392BF6013183A4
:1002D0002083C8010E94BB111F910F91FF90DF90F6
:1002E000CF9008950F931F93DF93CF9300D0CDB796
:1002F000DEB78C0184EF6EE20E94240165E070E0BD
:1003000080E090E00E94330A86EFBE016F5F7F4F6E
:100310000E94420189819A81A0E0B0E0F8018083C7
:100320009183A283B3830F900F90CF91DF911F91A0
:100330000F910895CF92DF92EF92FF921F93182FA3
:100340006B0192EDE92E93E0F92EC70167E70E9459
:10035000F610C701612F0E947811C7010E94BB11DE
:10036000C70167E741E00E94CC11C7010E94091153
:10037000F6018083C7010E94BB111F91FF90EF908F
:10038000DF90CF9008952F923F924F925F926F929D
:100390007F928F929F92AF92BF92CF92DF92EF9215
:1003A000FF920F931F93DF93CF93CDB7DEB72F97B5
:1003B0000FB6F894DEBF0FBECDBF7F876E871C825D
:1003C0001D821E821F82CE0104960E9472016091DE
:1003D00006026295660F660F607C6C5C84EF0E947B
:1003E000240180910602813051F0813018F0823072
:1003F00081F40AC065E070E080E090E00EC068E043
:1004000070E080E090E009C06EE070E080E090E095
:1004100004C06AE170E080E090E00E94330A86EF59
:10042000BE016E5F7F4F0E9442016A807B808824FC
:100430009924982C872C762C662488EFBE016F5F58
:100440007F4F0E949A0180910602282F30E0398761
:1004500028872091FA013091FB0140E050E06C8147
:100460007D818E819F81621B730B840B950B209184
:10047000F8013091F90140E050E00E945B180E94C1
:10048000401720E030E040E058E30E94F4170E945B
:100490000D177B018C016091020270910302882785
:1004A00077FD8095982F0E94401720E030E040E0D3
:1004B00055E40E94F4170E940D1720910402309118
:1004C0000502442737FD4095542F2E0D3F1D401F38
:1004D000511F0E949C1859016A0180E690EFAFEF0E
:1004E000BFEFE80EF91E0A1F1B1FAE0CBF1CC01E7B
:1004F000D11EC601B501A60195010E945B181B0122
:100500002C01ACE05594479437942794AA95D1F7E1
:100510002091F4013091F501442737FD4095542F87
:10052000C601B5010E945B187B018C01FDE01595A9
:100530000795F794E794FA95D1F782E090E0A0E070
:10054000B0E0E80EF91E0A1F1B1F2091FC0130913C
:10055000FD01442737FD4095542FC201B1010E948F
:100560005B18BC01992777FD9095892FE60EF71E41
:10057000081F191F52E015950795F794E7945A95AF
:10058000D1F780E090E8A0E0B0E0E80EF91E0A1F85
:100590001B1F2091F6013091F70140E050E0C801A7
:1005A000B7010E945B18DC01CB014FE0B695A7951F
:1005B000979587954A95D1F78A879B87AC87BD87A2
:1005C0008981680E711C811C911C88E090E0A885CF
:1005D000B9858A1B9B0B04C0959487947794679484
:1005E0008A95D2F72091F2013091F301442737FD2B
:1005F0004095542FC601B5010E945B187B018C0108
:100600003BE015950795F794E7943A95D1F78091DB
:10061000F0019091F101AA2797FDA095BA2F22E051
:10062000880F991FAA1FBB1F2A95D1F7E80EF91E44
:100630000A1F1B1F2091FE013091FF01442737FD47
:100640004095542FC201B1010E945B18ABE0959513
:10065000879577956795AA95D1F7E60EF71E081F3F
:10066000191F088404C0EE0CFF1C001F111F0A9400
:10067000D2F782E090E0A0E0B0E0E80EF91E0A1F99
:100680001B1FF2E015950795F794E794FA95D1F7BB
:100690006E187F08800A910A20E533EC40E050E0B4
:1006A000088404C055954795379527950A94D2F745
:1006B000C401B3010E945B1897FD0FC0660F771F3E
:1006C000881F991F2A853B854C855D850E947A1875
:1006D000C901DA015C016D010CC02A853B854C859E
:1006E0005D850E947A1859016A01AA0CBB1CCC1CBA
:1006F000DD1C5527D7FC5A954D2D3C2D2B2DCA01BD
:10070000B9010E945B182EED3BE040E050E00E94F2
:100710005B187B018C01C601B50123E433EE4FEF7A
:100720005FEF0E945B18BC01992777FD9095892F98
:100730006153714F8F4F9F4F78011127F7FC109530
:10074000012F6E0D7F1D801F911F24E095958795C9
:10075000779567952A95D1F76A0D7B1D8C1D9D1D98
:100760000E944017AE85BF856D937D938D939C93BA
:1007700013972F960FB6F894DEBF0FBECDBFCF9163
:10078000DF911F910F91FF90EF90DF90CF90BF907E
:10079000AF909F908F907F906F905F904F903F9021
:1007A0002F9008950F931F93DF93CF9300D000D025
:1007B000CDB7DEB7FC018B0184E2DB011D928A9587
:1007C000E9F724E230E040E050E0DB012D933D9377
:1007D0004D935C9313972281338144815581149604
:1007E0002D933D934D935C93179726E030E040E0C6
:1007F00050E018962D933D934D935C931B97509624
:100800001D921D921D921C925397CF01BE016F5FE6
:100810007F4F0E94C30169817A818B819C8120E096
:1008200030E048EC52E40E94A516F801648B758B09
:10083000868B978B0F900F900F900F90CF91DF9139
:100840001F910F9108950F931F93DF93CF9300D0C3
:100850000F92CDB7DEB78B0182ED93E00E94D011ED
:100860000430110514F417FF02C003E010E080ED1E
:10087000BE016F5F7F4F0E949A018981853511F01B
:1008800080E065C0009306028E010E5F1F4F8AEA6A
:10089000B8010E9442018A819B819093F10180936B
:1008A000F0018CEAB8010E9442018A819B819093F9
:1008B000F3018093F2018EEAB8010E9442018A811D
:1008C0009B819093F5018093F40180EB66EF71E0DA
:1008D0000E94420182EB68EF71E00E94420184EBCA
:1008E0006AEF71E00E94420186EBB8010E9442016A
:1008F0008A819B819093FD018093FC0188EBB80174
:100900000E9442018A819B819093FF018093FE01A6
:100910008AEBB8010E9442018A819B819093010277
:10092000809300028CEBB8010E9442018A819B8176
:1009300090930302809302028EEBB8010E94420161
:100940008A819B81909305028093040281E00F903D
:100950000F900F90CF91DF911F910F910895FC019F
:1009600066834783208781E0858708950F931F93CF
:100970008C01FC01868160E00E94D10AF801868129
:1009800061E00E94100BF80111861286138614860E
:100990001F910F910895CF92DF92EF92FF920F93E4
:1009A0001F93CF93DF93EC018E8161E00E94100BC7
:1009B0006AEF70E080E090E00E94330A0E94250A0E
:1009C0009B01AC0189859A85AB85BC8528173907C1
:1009D0004A075B0720F419861A861B861C868D85BC
:1009E000882371F489859A85AB85BC85281B390BD2
:1009F0004A0B5B0B205D37404040504008F477C005
:100A00001D860E94250A69877A878B879C871C82AE
:100A10001B821A82198218828E8161E00E94D10A9B
:100A20008E8160E00E94100B64E170E080E090E055
:100A30000E94330AF8948E8161E00E94100B88E2D4
:100A400090E00E948C0A8E8160E00E94D10A81E0D1
:100A5000EE2400E010E00AC0F39481E090E00E94F0
:100A60008C0A8FEFF81629F40AC0822FFF24C82EB3
:100A7000DD248E810E94640B8C159D0569F38E81A7
:100A80000E94640B282F8FEFF816C9F0043090F005
:100A900000FD10C08E2D869586958695FE01E80F87
:100AA000F11D9081990F908388858F1510F49160C6
:100AB0009083E3940F5F1F4F05351105B1F67894CD
:100AC00087E28E1510F030E013C030E04C8150E02A
:100AD0002981888190E0820F911D2A81820F911DCA
:100AE0002B81820F911D90704817590709F431E04E
:100AF000832FDF91CF911F910F91FF90EF90DF90A7
:100B0000CF900895EF92FF920F931F93CF93DF93AF
:100B1000EC010E94CB048823A9F18F818B3031F046
:100B20008B3080F18551823068F507C0688170E0B4
:100B300080E090E00E943E1722C0688170E080E073
:100B400090E00E943E1720E030E040E853E40E942D
:100B5000F4177B018C01698170E0882777FD80950F
:100B6000982F0E9440179B01AC01C801B7010E9459
:100B70003D1620E030E040E251E40E94A516E62F49
:100B8000692F0AC08AE693E067E071E00E94F40EE4
:100B9000E0E070E080EC6FE72E2F372F482F562FC4
:100BA000B901CA01DF91CF911F910F91FF90EF9092
:100BB0000895FC0110820895EF92FF920F931F9306
:100BC000CF93DF93EC010E94250A7B018C018B857A
:100BD0009C85AD85BE85A8019701281B390B4A0B62
:100BE0005B0B89819A81AB81BC81281739074A0741
:100BF0005B07E0F08881813019F0823071F404C025
:100C0000E985FA85099509C060E08885882309F49B
:100C100061E068878F810E94100BEB86FC860D8750
:100C20001E878F8598890196988B8F872D813E81AD
:100C300037FD06C08F859889821793070CF01882BC
:100C4000DF91CF911F910F91FF90EF900895EF9258
:100C5000FF920F931F93CF93DF937C018C01C0E031
:100C6000D0E0F8018081882361F0CE0134E0880F64
:100C7000991F3A95E1F78C0F9D1F8E0D9F1D0E94C5
:100C8000DC0521960F5E1F4FCA30D10551F7DF9169
:100C9000CF911F910F91FF90EF900895DF92EF9207
:100CA000FF920F931F93DC01762F602FFC01DD2450
:100CB0008081882341F0D39471968AE0D816C1F7D9
:100CC000DD24DA9428C08D2D992787FD90958C011D
:100CD000E4E0000F111FEA95E1F7080F191F0A0F52
:100CE0001B1F82E0F8018083778321833283438353
:100CF00054836087872F0E94100BEE0CFF1CF801B5
:100D0000F682E5820E94250AF80163877487858749
:100D10009687108A17868D2D1F910F91FF90EF9067
:100D2000DF900895EF92FF920F93EE24EA94FE2C49
:100D30000E944E060F91FF90EF900895FF920F933F
:100D40001F93CF93DF93DC01E9019801FC01FF249D
:100D50008081882341F0F39471968AE0F816C1F7F8
:100D6000FF24FA9422C08F2D992787FD90958C013E
:100D7000E4E0000F111FEA95E1F7080F191F0A0FB1
:100D80001B1F81E0F8018083418352836383748356
:100D900036832583D287C1870E94250AF80163879D
:100DA000748785879687108A17868F2DDF91CF915C
:100DB0001F910F91FF9008950F931F930FEF1FEF57
:100DC0000E949E061F910F9108950F931F93CF933A
:100DD000DF93EC0100E010E0CE01800F911F0E9434
:100DE000D9050F5E1F4F0A3A1105B1F7DF91CF9178
:100DF0001F910F910895089508958091BF029091D9
:100E0000C002A091C102B091C2020196A11DB11D04
:100E10008093BF029093C002A093C102B093C2021C
:100E2000089581309105E9F46F5F7F4F19F587E0F0
:100E300092E00E94E50681EB92E060E146E126E067
:100E40000E94AF0487EC92E061E171E00E94BD1066
:100E50008FEC92E045E657E260E070E00E94CB0044
:100E60000895892B39F46F5F7F4F21F487EC92E06E
:100E70000E94F010089580E090E06FEF7FEF0E94F5
:100E80001107089581E090E06FEF7FEF0E94110756
:100E9000089581EB92E00E9482056093C3027093F3
:100EA000C4028093C5029093C6020895EF92FF9208
:100EB0000F931F93DF93CF93CDB7DEB727970FB66E
:100EC000F894DEBF0FBECDBF8E010F5F1F4FC8016C
:100ED00062E171E00E94BD1087EC92E0B8010E94CF
:100EE0000F107C01C8010E94F010F7FC06C08AE0D8
:100EF00090E09093C2018093C10187EC92E061E1A0
:100F000071E00E94D7101092CE0227960FB6F89487
:100F1000DEBF0FBECDBFCF91DF911F910F91FF902C
:100F2000EF9008950F931F9301E010C08AE693E0BD
:100F30000E94F80C182F87EC92E0612F0E94771026
:100F40001A3021F40093CE020E9456078AE693E0FD
:100F50000E94C70C892B51F71F910F91089587E0CC
:100F600092E00E9427060895CF92DF92EF92FF92BF
:100F70000F931F9329E288E190E00FB6F894A895AB
:100F8000809360000FBE209360000FEC12E0C80158
:100F900063E070E00E9423048AE693E040E855E2B3
:100FA00060E070E00E94400C8091B80161E00E9416
:100FB000D10A8091B90161E00E94D10A8091BC01FF
:100FC00060E00E94D10A8091BD0160E00E94D10AD8
:100FD0008091BE0160E00E94D10A8091BF0160E073
:100FE0000E94D10A8091C00160E00E94D10A8091E4
:100FF000BA0161E00E94D10A8091BB0161E00E94C8
:10100000D10A8091BA0161E00E94100B8091BB016E
:1010100061E00E94100B87EC92E060E470E00E94B7
:101020002E1080E06DEF76E043E050E00E94600912
:10103000C80163E070E00E94230471EBC72E72E0E8
:10104000D72EC6010E94B60467E0E62E62E0F62EB7
:10105000C70144EF51E060E070E021E239E00E9416
:10106000DC06C70148EE53E060E070E02BEF36E0AD
:101070000E94DC06C70140E157E260E070E02CEF1F
:1010800036E00E94DC06C70140E65AEE60E070E000
:1010900029E437E00E94DC06C7016091B8012AEF1D
:1010A00030E040E050E001E00E949206C70160910C
:1010B000B9012AEF30E040E050E000E00E949206E3
:1010C000C6010E9482056093C3027093C40280939C
:1010D000C5029093C6021F910F91FF90EF90DF9091
:1010E000CF900895CF93DF930E94960A0E94B40791
:1010F000C2EFDBE00E94AF072097E1F30E94F20B02
:10110000F9CFCF92DF92EF92FF920F931F93DF936D
:10111000CF93CDB7DEB7A8970FB6F894DEBF0FBE5A
:10112000CDBF8FEC92E07E010894E11CF11CB70169
:101130000E94D5000AE613E0F8E1CF2EF1E0DF2EA1
:10114000C801B6010E94DE0FC8016DE371E00E9484
:10115000F40EC801B7010E94DE0FC8016CE471E013
:101160000E94F40E4D855E856F857889C8012AE05E
:1011700030E00E94E00EC8016BE571E00E94F40EC1
:1011800049895A896B897C89C8012AE030E00E942C
:10119000E00EC8016AE671E00E94F40E498D5A8D96
:1011A0006B8D7C8DC80122E030E00E94DB0FE9E707
:1011B000EE2EE1E0FE2EC801B7010E94DE0FC8014D
:1011C0006EE771E00E94F40E4D8D5E8D6F8D78A1FB
:1011D000C80122E030E00E94DB0FC801B7010E9485
:1011E000DE0FC8016DE871E00E94F40E49A15AA11A
:1011F0006BA17CA1C80122E030E00E94DB0FC80196
:10120000B7010E94DE0FC801B6010E94DE0FC801BF
:1012100061E171E00E94DE0F64EF71E080E090E038
:101220000E94330AA8960FB6F894DEBF0FBECDBF5A
:10123000CF91DF911F910F91FF90EF90DF90CF90B2
:101240000895DF93CF93CDB7DEB7A4970FB6F89488
:10125000DEBF0FBECDBFA8958FEC92E0BE016F5FE1
:101260007F4F0E94D2036D897E898F89988D20E0FF
:1012700030E040E050E00E94A1168823B1F08AE6F9
:1012800093E06CE971E00E94F40E4D895E896F89EC
:10129000788D8AE693E022E030E00E94DB0F8AE658
:1012A00093E069E771E00E94DE0F0E948108A49636
:1012B0000FB6F894DEBF0FBECDBFCF91DF9108957A
:1012C000823000F5E82FF0E0EE0FFF1FEB52FD4FEC
:1012D00071836083882319F08130A1F408C0809164
:1012E00069008C7F842B80936900E89A089580912F
:1012F0006900440F551F440F551F837F842B809333
:101300006900E99A08951F920F920FB60F92112467
:101310002F933F934F935F936F937F938F939F93FD
:10132000AF93BF93EF93FF938091D5029091D60234
:10133000892B29F0E091D502F091D6020995FF9111
:10134000EF91BF91AF919F918F917F916F915F913D
:101350004F913F912F910F900FBE0F901F901895B6
:101360001F920F920FB60F9211242F933F934F931A
:101370005F936F937F938F939F93AF93BF93EF93FD
:10138000FF938091D7029091D802892B29F0E091A8
:10139000D702F091D8020995FF91EF91BF91AF91DB
:1013A0009F918F917F916F915F914F913F912F917D
:1013B0000F900FBE0F901F9018951F920F920FB6AF
:1013C0000F9211242F933F938F939F93AF93BF93CB
:1013D0008091DD029091DE02A091DF02B091E002E7
:1013E0003091E1020196A11DB11D232F2D5F2D37F4
:1013F00020F02D570196A11DB11D2093E10280938D
:10140000DD029093DE02A093DF02B093E0028091B0
:10141000D9029091DA02A091DB02B091DC02019630
:10142000A11DB11D8093D9029093DA02A093DB0233
:10143000B093DC02BF91AF919F918F913F912F911B
:101440000F900FBE0F901F9018958FB7F8942091B2
:10145000DD023091DE024091DF025091E0028FBF49
:10146000B901CA0108959B01AC017FB7F89480913E
:10147000D9029091DA02A091DB02B091DC0266B54C
:10148000A89B05C06F3F19F00196A11DB11D7FBF3C
:10149000BA2FA92F982F8827860F911DA11DB11D46
:1014A00062E0880F991FAA1FBB1F6A95D1F7BC0184
:1014B0002DC0FFB7F8948091D9029091DA02A091E3
:1014C000DB02B091DC02E6B5A89B05C0EF3F19F046
:1014D0000196A11DB11DFFBFBA2FA92F982F8827F4
:1014E0008E0F911DA11DB11DE2E0880F991FAA1F4B
:1014F000BB1FEA95D1F7861B970B885E9340C8F215
:10150000215030404040504068517C4F21153105FA
:101510004105510571F60895019739F0880F991F1B
:10152000880F991F02970197F1F70895789484B571
:10153000826084BD84B5816084BD85B5826085BDCF
:1015400085B5816085BDEEE6F0E0808181608083B5
:10155000E1E8F0E010828081826080838081816098
:101560008083E0E8F0E0808181608083E1EBF0E05F
:10157000808184608083E0EBF0E080818160808303
:10158000EAE7F0E0808184608083808182608083EC
:101590008081816080838081806880831092C10017
:1015A0000895CF93DF93482F50E0CA0186569F4F8E
:1015B000FC0134914A575F4FFA018491882369F105
:1015C00090E0880F991FFC01E859FF4FA591B49155
:1015D000FC01EE58FF4FC591D491662351F42FB70B
:1015E000F8948C91932F909589238C9388818923EB
:1015F0000BC0623061F42FB7F8948C91932F9095C3
:1016000089238C938881832B88832FBF06C09FB743
:10161000F8948C91832B8C939FBFDF91CF91089589
:10162000482F50E0CA0182559F4FFC012491CA0106
:1016300086569F4FFC0194914A575F4FFA013491AF
:10164000332309F440C0222351F1233071F02430B8
:1016500028F42130A1F0223011F514C02630B1F069
:101660002730C1F02430D9F404C0809180008F77F6
:1016700003C0809180008F7D8093800010C084B56E
:101680008F7702C084B58F7D84BD09C08091B00082
:101690008F7703C08091B0008F7D8093B000E32FDF
:1016A000F0E0EE0FFF1FEE58FF4FA591B4912FB75A
:1016B000F894662321F48C919095892302C08C9133
:1016C000892B8C932FBF0895682F70E0CB01825532
:1016D0009F4FFC012491CB0186569F4FFC01449102
:1016E0006A577F4FFB019491992319F420E030E071
:1016F0003CC0222351F1233071F0243028F42130F2
:10170000A1F0223011F514C02630B1F02730C1F01D
:101710002430D9F404C0809180008F7703C0809179
:1017200080008F7D8093800010C084B58F7702C0C9
:1017300084B58F7D84BD09C08091B0008F7703C0D0
:101740008091B0008F7D8093B000892F90E0880F4A
:10175000991F84589F4FFC01A591B4918C9120E072
:1017600030E0842311F021E030E0C90108951F9298
:101770000F920FB60F9211242F933F934F938F9395
:101780009F93EF93FF938091C00082FD1DC0409115
:10179000C60020912203309123032F5F3F4F2F7308
:1017A000307080912403909125032817390771F038
:1017B000E0912203F0912303EE51FD4F40833093DB
:1017C00023032093220302C08091C600FF91EF9172
:1017D0009F918F914F913F912F910F900FBE0F903E
:1017E0001F901895E0917603F0917703E05CFF4F2E
:1017F0008191919120813181821B930B8F73907025
:10180000892B11F00E94920708951F920F920FB634
:101810000F9211242F933F938F939F93EF93FF93F6
:10182000209166033091670380916803909169036A
:101830002817390731F48091C1008F7D8093C10052
:1018400014C0E0916803F0916903EA5DFC4F2081C8
:10185000809168039091690301968F7390709093C3
:101860006903809368032093C600FF91EF919F91D5
:101870008F913F912F910F900FBE0F901F90189551
:10188000AF92BF92DF92EF92FF920F931F93CF938D
:10189000DF93EC017A018B01DD24403081EE5807A3
:1018A00080E0680780E0780711F0DD24D39491E0B0
:1018B000A92EB12CEC89FD89DD2069F0C50108A0B5
:1018C00002C0880F991F0A94E2F7808360E079E0F4
:1018D0008DE390E005C0108260E874E88EE190E04E
:1018E000A80197010E947A18215030404040504092
:1018F000569547953795279580E12030380720F099
:10190000DD2011F0DD24D6CFE889F9893083EA891A
:10191000FB89208319A2EE89FF89408121E030E014
:10192000C9010C8C02C0880F991F0A94E2F7482B5A
:101930004083EE89FF894081C9010D8C02C0880F68
:10194000991F0A94E2F7482B4083EE89FF89408172
:10195000C9010E8C02C0880F991F0A94E2F7482B28
:101960004083EE89FF8980810F8C02C0220F331FD4
:101970000A94E2F7209528232083DF91CF911F91CD
:101980000F91FF90EF90DF90BF90AF900895DC0132
:101990001C96ED91FC911D97E05CFF4F21913191D8
:1019A00080819181281B390B2F733070C9010895F4
:1019B000DC011C96ED91FC911D97E05CFF4F2081AE
:1019C0003181E054F040DF01AE5BBF4F8D919C91BF
:1019D00011972817390719F42FEF3FEF07C08D91A2
:1019E0009C91E80FF91F8081282F30E0C9010895EC
:1019F000DC011C96ED91FC911D97E05CFF4F20816E
:101A00003181E054F040DF01AE5BBF4F8D919C917E
:101A100011972817390719F42FEF3FEF10C08D9158
:101A20009C911197E80FF91F20818D919C9111973E
:101A300001968F73907011969C938E9330E0C9013C
:101A40000895DC0191968C919197882339F05496F2
:101A5000ED91FC915597808186FFF9CF91961C926C
:101A60000895CF93DF93EC01EE85FF85E05CFF4F97
:101A700020813181E054F0402F5F3F4F2F73307051
:101A8000DF01AE5BBF4F8D919C91119728173907ED
:101A9000D1F3E05CFF4F80819181E054F040E80F8A
:101AA000F91F6083EE85FF85E05CFF4F3183208363
:101AB000EE89FF89208181E090E00F8C02C0880FC1
:101AC000991F0A94E2F7282B208381E089A3EC89EF
:101AD000FD8980818064808381E090E0DF91CF91F7
:101AE000089510926D0310926C0388EE93E0A0E0CD
:101AF000B0E080936E0390936F03A0937003B09354
:101B0000710383ED91E090936B0380936A0382EEFF
:101B100092E0909377038093760386E293E090932C
:101B200079038093780385EC90E090937B03809316
:101B30007A0384EC90E090937D0380937C0380ECA7
:101B400090E090937F0380937E0381EC90E09093EC
:101B500081038093800382EC90E0909383038093D1
:101B6000820386EC90E0909385038093840384E065
:101B70008093860383E08093870387E080938803C4
:101B800085E08093890381E080938A030895CF9252
:101B9000DF92EF92FF920F931F93CF93DF937C011D
:101BA0006B018A01C0E0D0E00FC0D6016D916D01DC
:101BB000D701ED91FC910190F081E02DC7010995CD
:101BC000C80FD91F015010400115110571F7CE0142
:101BD000DF91CF911F910F91FF90EF90DF90CF9009
:101BE0000895EF92FF920F931F938C01DC01ED910A
:101BF000FC910190F081E02D6DE009957C01D80108
:101C0000ED91FC910190F081E02DC8016AE0099509
:101C10009C012E0D3F1DC9011F910F91FF90EF9068
:101C20000895CF93DF93EC016115710519F420E05D
:101C300030E00FC0DB010D900020E9F71197A61BE3
:101C4000B70BE881F9810280F381E02DAD010995A0
:101C50009C01C901DF91CF9108954F925F927F92CD
:101C60008F929F92AF92BF92CF92DF92EF92FF92AC
:101C70000F931F93DF93CF93CDB7DEB7A1970FB626
:101C8000F894DEBF0FBECDBF2C01742ECB012230E5
:101C900008F42AE019A231E2C32ED12CCC0EDD1EAD
:101CA000822E9924AA24BB24672D752FA5019401A7
:101CB0000E947A1879018A01C801B701A50194012F
:101CC0000E945B18472D461B0894C108D1084A3072
:101CD00014F4405D01C0495CF6014083E114F10455
:101CE0000105110521F07E2C5F2DC801DDCFC20159
:101CF000B6010E94110EA1960FB6F894DEBF0FBE7A
:101D0000CDBFCF91DF911F910F91FF90EF90DF90AA
:101D1000CF90BF90AF909F908F907F905F904F90AB
:101D20000895DC012115310541F4ED91FC910190FC
:101D3000F081E02D642F099508950E942D0E0895DD
:101D4000CF92DF92EF92FF920F931F93CF93DF9387
:101D5000EC016A017B012115310541F4E881F9812B
:101D60000190F081E02D642F09951FC02A303105C4
:101D7000D1F477FF17C0E881F9810190F081E02D5F
:101D80006DE209958C0144275527BA014C195D096C
:101D90006E097F09CE012AE00E942D0E9801280FBE
:101DA000391F04C02AE00E942D0E9C01C901DF9159
:101DB000CF911F910F91FF90EF90DF90CF900895FA
:101DC000EF92FF920F931F937C010E94A00E8C0153
:101DD000C7010E94F10D9C01200F311FC9011F9105
:101DE0000F91FF90EF9008950E94110E08957F9239
:101DF0008F929F92AF92BF92CF92DF92EF92FF921B
:101E00000F931F93CF93DF934C017A018B01722EB6
:101E1000CB01BA01A80197010E945718882321F02D
:101E2000C4016AEA71E021C0C0E0D0E05701680156
:101E3000E894D7F8C601B5012FEF3FEF4FE75FE712
:101E40000E945718882351F4C601B5012FEF3FEFC8
:101E50004FE75FE70E94A116181614F0C1E0D0E02A
:101E6000219739F0C4016EEA71E00E94110EEC0175
:101E700093C0C801B7012FEF3FEF4FE75FE40E9427
:101E8000F017181654F0C801B7012FEF3FEF4FE7D6
:101E90005FEC0E94A116882324F4C40162EB71E078
:101EA000E4CFC801B70120E030E040E050E00E94FC
:101EB000A11687FD03C0C0E0D0E00EC0D401ED91B3
:101EC000FC910190F081E02DC4016DE20995EC01D7
:101ED00017FB109517F9109520E030E040E05FE324
:101EE000DD240BC0CA01B90120E030E040E251E43A
:101EF0000E94A5169B01AC01D394D71498F3C80196
:101F0000B7010E943D165B016C010E9412177B0114
:101F10008C01C401B801A7012AE030E00E94910EB3
:101F2000C80FD91F772039F0C40166EB71E00E9419
:101F3000110EC80FD91FC801B7010E943E179B019F
:101F4000AC01C601B5010E943C1624C020E030E07F
:101F500040E251E40E94F4177B018C010E940D17AE
:101F60005B016C01CC24B7FCC094DC2CC401B6012D
:101F7000A5012AE030E00E94A00EC80FD91FC601BB
:101F8000B5010E9440179B01AC01C801B7010E9436
:101F90003C167A947720D1F6CE01DF91CF911F9134
:101FA0000F91FF90EF90DF90CF90BF90AF909F90F8
:101FB0008F907F9008950E94F70E0895EF92FF9200
:101FC0000F931F937C010E94110E8C01C7010E9488
:101FD000F10D080F191FC8011F910F91FF90EF908D
:101FE0000895CF93DF93FC01DB018481958148172D
:101FF000590760F4C081D1816D917C91CE01840F2D
:10200000951F0E94B1009C01009719F42FEF3FEF3C
:1020100002C02C1B3D0BC901DF91CF91089540E018
:1020200050E00E94F10F08950F931F93CF93DF9319
:10203000EC018B016F5F7F4F888199810E94FA12BA
:10204000009711F480E005C0998388831B830A837D
:1020500081E0DF91CF911F910F910895CF93DF938E
:10206000EC0188819981892B29F08A819B818617CF
:10207000970760F4CE010E941410882341F08C81F0
:102080009D81892B19F4E881F981108281E0DF912B
:10209000CF910895EF92FF920F931F93CF93DF9309
:1020A000EC017B016C817D81E114F104C1F04115EB
:1020B000510599F08A01060F171FB8010E942E10D2
:1020C000882369F0888199812C813D81820F931F3B
:1020D000B7010E949B001D830C8381E001C080E05A
:1020E000DF91CF911F910F91FF90EF900895DF93B3
:1020F000CF9300D0CDB7DEB769831A82BE016F5F80
:102100007F4F41E050E00E944A100F900F90CF9116
:10211000DF910895CF93DF93EC0188819981009737
:1021200011F00E946212198218821D821C821B8289
:102130001A82DF91CF910895EF92FF920F931F9330
:10214000CF93DF93EC017B018A01BA010E942E102C
:10215000882321F4CE010E948A1007C01D830C83BE
:1021600088819981B7010E949B00CE01DF91CF91B8
:102170001F910F91FF90EF900895CF93DF93EC01A3
:10218000198218821B821A821D821C821E8261158E
:10219000710551F0DB010D900020E9F71197A61BA6
:1021A000B70BAD010E949C10DF91CF9108950F9362
:1021B0001F93182F092F6115710559F0DB010D9040
:1021C0000020E9F71197A61BB70BAD010E949C10E8
:1021D00002C00E948A10812F902F1F910F910895A5
:1021E000FC01808191810E946212089581E08093B8
:1021F000D1036093AE031092CF031092D0030895E1
:102200002091AD0330E08091AC03281B3109C90156
:1022100008954091AC038091AD03481718F02FEF5B
:102220003FEF0AC0E42FF0E0E457FC4F8081282FF5
:1022300030E04F5F4093AC03C9010895E091AC03D7
:102240008091AD03E81718F0EFEFFFEF06C0F0E064
:10225000E457FC4F8081E82FF0E0CF010895089506
:102260001092D5031092D40388EE93E0A0E0B0E082
:102270008093D6039093D703A093D803B093D90348
:1022800083EE91E09093D3038093D2030895CF928D
:10229000DF92EF92FF920F931F93CF93DF937C0116
:1022A0006B018A018091D1038823A1F0C0E0D0E0C6
:1022B0000DC0D701ED91FC91D601AC0FBD1F01906F
:1022C000F081E02DC7016C9109952196C017D107C7
:1022D00080F304C0CB01642F0E947214C801DF9107
:1022E000CF911F910F91FF90EF90DF90CF900895C5
:1022F000DF93CF930F92CDB7DEB7FC016983809156
:10230000D1038823C9F08091D003803238F081E076
:1023100090E09383828320E030E015C08091CF036A
:10232000E82FF0E0E155FC4F998190838F5F809317
:10233000CF038093D00305C0CE01019661E00E94D7
:10234000721421E030E0C9010F90CF91DF91089520
:102350000F93062F8091AE036FEA73E04091D00394
:1023600021E00E941D141092CF031092D00310920E
:10237000D1030F91089561E00E94A81108954132A0
:1023800008F040E2862F6CE873E00E94D4131092AC
:10239000AC038093AD03089521E00E94BF1108951E
:1023A0001092AC031092AD031092CF031092D003A1
:1023B0000E941E1608950F931F93CF93DF93BC01C5
:1023C0008230910510F462E070E0E0914C04F091ED
:1023D0004D04A0E0B0E040E050E024C08081918155
:1023E00086179707D0F08617970771F4828193813B
:1023F000109729F013969C938E9312972CC090936C
:102400004D0480934C0427C04115510519F08417E1
:10241000950718F4EF018D01AC01DF0182819381F2
:102420009C01F9013097D1F641155105F9F0CA0127
:10243000861B970B8430910580F48A819B8101155E
:10244000110521F0F8019383828304C090934D0419
:1024500080934C04FE0132962FC0FE01E80FF91F55
:102460006193719302979983888326C08DB79EB735
:10247000885790402091C3013091C4012817390733
:10248000C8F4AC01421B530B4617570798F0CB0119
:1024900002964817590770F0820F931F9093C4015A
:1024A0008093C3019093C6018093C501F9016193A4
:1024B000719302C0E0E0F0E0CF01DF91CF911F9176
:1024C0000F910895CF93DF939C01009709F48FC07B
:1024D000EC0122971B821A8260914C0470914D048A
:1024E0006115710581F488819981820F931F209174
:1024F000C3013091C4012817390739F5D093C401BD
:10250000C093C30174C0DB0140E050E0AC17BD07CD
:1025100008F1BB83AA83FE0121913191E20FF31FE1
:10252000AE17BF0779F48D919C911197280F391F31
:102530002E5F3F4F3983288312968D919C9113977C
:102540009B838A834115510571F4D0934D04C09348
:102550004C044DC012968D919C911397AD0100973C
:1025600011F0DC01D3CFDA011396DC93CE931297EE
:10257000FA0121913191E20FF31FCE17DF0769F4C1
:1025800088819981280F391F2E5F3F4FFA013183CF
:1025900020838A819B8193838283E0E0F0E0DB01EA
:1025A00012968D919C911397009719F0BC01FD0133
:1025B000F6CFAB014E5F5F4FDB018D919C91840F95
:1025C000951F2091C3013091C4012817390779F470
:1025D000309729F410924D0410924C0402C01382DB
:1025E0001282425050405093C4014093C301DF9186
:1025F000CF9108956F927F928F929F92AF92BF92E8
:10260000CF92DF92EF92FF920F931F93CF93DF93BE
:102610008C01009729F4CB010E94DB118C01B4C01E
:102620008EEFE82E8FEFF82EE00EF11E5801A60E69
:10263000B71EAE14BF0408F4A5C0D7014D915C913C
:10264000119746175707B8F04530510508F49CC05C
:10265000CA0104978617970708F496C04250504065
:10266000461B570BF501419351936D937C93CF011A
:102670000E94621289C04B01841A950A3801640EC7
:10268000751EA0914C04B0914D04CC24DD24E0E0F3
:10269000F0E047C0A615B705A9F5CD91DC911197DB
:1026A000CE0102968815990568F1CE01881999091D
:1026B000029612962C91129713963C91059758F01A
:1026C000F50122833383C819D909D183C083D70187
:1026D0006D937C9309C04E5F5F4F4C0F5D1FF701F8
:1026E00051834083C901FC01C114D10431F0D601EA
:1026F0001396FC93EE93129747C0F0934D04E0932A
:102700004C0442C08D919C911197E817F90708F489
:10271000FC016D0112968C91129713969C919C016D
:10272000D901109709F0B6CF8091C3019091C401EF
:1027300086159705B1F4E617F70798F48DB79EB79D
:1027400088579040A816B906E8F4B092C401A09248
:10275000C301B092C601A092C501F70171836083E5
:1027600013C0CB010E94DB11EC01009759F0D70197
:102770004D915C91B8010E949200C8010E946212C2
:102780008E0102C000E010E0C801DF91CF911F91DF
:102790000F91FF90EF90DF90CF90BF90AF909F9000
:1027A0008F907F906F900895382F413210F040E065
:1027B00042C08091DE038823E1F791E09093DE032D
:1027C0002093E0038FEF80934B0410920604415056
:1027D000409307044F5F9093DF038091DF03330F33
:1027E000832B8093DF038091E103813041F41092C9
:1027F000E1038091DF038093BB0085EC01C085EE8F
:102800008093BC008091DE038130E1F38091060467
:10281000841710F44091060420E030E00AC0FB0168
:10282000E20FF31FD901AA51BC4F8C9180832F5F17
:102830003F4F2417A0F3842F08950F931F93582F11
:10284000122F413210F081E04AC08091DE038823CC
:10285000E1F782E08093DE030093E0038FEF809343
:102860004B041092060440930704A6EEB3E0FB016C
:1028700002C081918D938E2F861B8417D0F3109206
:10288000DF038091DF03550F852B8093DF03809159
:10289000E103813041F41092E1038091DF038093E2
:1028A000BB0085EC01C085EE8093BC00112321F0B4
:1028B0008091DE038230E1F380914B048F3F11F46D
:1028C00080E00DC080914B04803211F482E007C09B
:1028D00080914B04803311F084E001C083E01F91AC
:1028E0000F910895482F613210F081E00895809192
:1028F000DE03843011F082E0089560932904A8E09B
:10290000B4E0842F9C01F90102C081918D938E2F38
:10291000841B8617D0F380E008951F920F920FB6A4
:102920000F9211242F933F934F935F936F937F9355
:102930008F939F93AF93BF93EF93FF938091B900D1
:1029400090E0887F90708036910509F4F2C081365E
:102950009105CCF58832910509F47BC08932910547
:10296000B4F48031910509F46FC0813191053CF4D4
:10297000009709F447C1089709F04FC165C0883135
:10298000910509F466C0809709F047C182C0803480
:10299000910509F4A4C08134910544F48033910574
:1029A00009F482C0C89709F038C189C08035910503
:1029B00009F489C08835910509F496C088349105D9
:1029C00009F02BC1AEC08839910509F413C18939CA
:1029D0009105ECF48837910509F4ABC0893791056E
:1029E0004CF48836910509F4A4C08037910509F0AC
:1029F00014C19FC08838910509F4FCC08039910545
:102A000009F49DC08038910509F007C198C0803B4A
:102A1000910509F4C6C0813B91054CF4803A9105BB
:102A200009F49FC0883A910509F0F7C0BAC0803C0C
:102A3000910509F4E3C0883C910509F4DFC0883BA7
:102A4000910509F0EAC0C2C08091DF038093BB000A
:102A5000CFC09091060480910704981768F4909174
:102A60000604E92FF0E0EA51FC4F80818093BB001F
:102A70009F5F90930604BCC08091E003882309F413
:102A80004BC085ED8093BC008091BC0084FDFCCFE1
:102A9000C2C080E280934B0485ED8093BC0080919E
:102AA000BC0084FDFCCFB7C080E380934B0485ED70
:102AB0008093BC008091BC0084FDFCCFACC088E357
:102AC00080934B049BC0809106049091BB00E82F3B
:102AD000F0E0EA51FC4F90838F5F80930604909161
:102AE00006048091070482C0809106049091BB0087
:102AF000E82FF0E0EA51FC4F90838F5F809306044B
:102B00008091E003882341F085ED8093BC008091A3
:102B1000BC0084FDFCCF7FC081E08093E10384EAA8
:102B20006EC085ED8093BC008091BC0084FDFCCF1D
:102B300072C083E08093DE0310924A0459C08091F2
:102B40004A04803208F056C080914A049091BB003C
:102B5000E82FF0E0E65DFB4F90838F5F80934A049F
:102B600047C080914A04803230F4E0914A04F0E09A
:102B7000E65DFB4F108285ED8093BC008091BC0028
:102B800084FDFCCF1092DE0360914A04E091E403DF
:102B9000F091E5038AE294E070E0099510924A040E
:102BA0002DC084E08093DE03109228041092290443
:102BB000E091E203F091E3030995809129048823D1
:102BC00029F481E08093290410920804909128044C
:102BD000E92FF0E0E85FFB4F80818093BB009F5FAF
:102BE000909328049091280480912904981710F458
:102BF00085EC01C085E88093BC000FC085EC809314
:102C0000BC0009C010924B0485ED8093BC008091FC
:102C1000BC0084FDFCCF1092DE03FF91EF91BF91C9
:102C2000AF919F918F917F916F915F914F913F9164
:102C30002F910F900FBE0F901F9018951092DE03EA
:102C400081E08093E0031092E10382E161E00E9461
:102C5000100B83E161E00E94100BE9EBF0E0808152
:102C60008E7F808380818D7F808388E48093B8000D
:102C700085E48093BC0008955058BB27AA270ED046
:102C800075C166D130F06BD120F031F49F3F11F463
:102C90001EF45BC10EF4E095E7FB51C1E92F77D13B
:102CA00080F3BA17620773078407950718F071F469
:102CB0009EF58FC10EF4E0950B2EBA2FA02D0B01BF
:102CC000B90190010C01CA01A0011124FF27591B71
:102CD00099F0593F50F4503E68F11A16F040A22F77
:102CE000232F342F4427585FF3CF469537952795E8
:102CF000A795F0405395C9F77EF41F16BA0B620BE7
:102D0000730B840BBAF09150A1F0FF0FBB1F661F2D
:102D1000771F881FC2F70EC0BA0F621F731F841F70
:102D200048F4879577956795B795F7959E3F08F096
:102D3000B3CF9395880F08F09927EE0F9795879555
:102D40000895D9D008F481E008950CD00FC107D1BF
:102D500040F0FED030F021F45F3F19F0F0C0511187
:102D600039C1F3C014D198F39923C9F35523B1F3B2
:102D7000951B550BBB27AA2762177307840738F0EA
:102D80009F5F5F4F220F331F441FAA1FA9F333D049
:102D90000E2E3AF0E0E830D091505040E695001CFD
:102DA000CAF729D0FE2F27D0660F771F881FBB1FB9
:102DB000261737074807AB07B0E809F0BB0B802D93
:102DC000BF01FF2793585F4F2AF09E3F510568F0DF
:102DD000B6C000C15F3FECF3983EDCF38695779573
:102DE0006795B795F7959F5FC9F7880F911D9695E1
:102DF000879597F90895E1E0660F771F881FBB1F3D
:102E0000621773078407BA0720F0621B730B840BE9
:102E1000BA0BEE1F88F7E095089504D06894B111BD
:102E2000D9C00895BCD088F09F5790F0B92F99274A
:102E3000B751A0F0D1F0660F771F881F991F1AF0C5
:102E4000BA95C9F712C0B13081F0C3D0B1E008958E
:102E5000C0C0672F782F8827B85F39F0B93FCCF30F
:102E6000869577956795B395D9F73EF490958095BB
:102E7000709561957F4F8F4F9F4F0895E89409C0DB
:102E800097FB3EF490958095709561957F4F8F4F9D
:102E90009F4F9923A9F0F92F96E9BB279395F695B3
:102EA000879577956795B795F111F8CFFAF4BB0F31
:102EB00011F460FF1BC06F5F7F4F8F4F9F4F16C095
:102EC000882311F096E911C0772321F09EE8872F1F
:102ED000762F05C0662371F096E8862F70E060E0DB
:102EE0002AF09A95660F771F881FDAF7880F969554
:102EF000879597F90895990F0008550FAA0BE0E8F8
:102F0000FEEF16161706E807F907C0F012161306AB
:102F1000E407F50798F0621B730B840B950B39F4EB
:102F20000A2661F0232B242B252B21F408950A2651
:102F300009F4A140A6958FEF811D811D089597F991
:102F40009F6780E870E060E008959FEF80EC08954F
:102F500000240A9416161706180609060895002478
:102F60000A9412161306140605060895092E0394F2
:102F7000000C11F4882352F0BB0F40F4BF2B11F466
:102F800060FF04C06F5F7F4F8F4F9F4F089557FDC5
:102F90009058440F551F59F05F3F71F04795880FC7
:102FA00097FB991F61F09F3F79F08795089512165E
:102FB00013061406551FF2CF4695F1DF08C016160A
:102FC00017061806991FF1CF8695710561050894BB
:102FD0000895E894BB2766277727CB0197F90895D2
:102FE0008ADF08F48FEF08950BD0C0CFB1DF28F04F
:102FF000B6DF18F0952309F0A2CFA7CF1124EACFAE
:10300000C6DFA0F3959FD1F3950F50E0551F629F47
:10301000F001729FBB27F00DB11D639FAA27F00D31
:10302000B11DAA1F649F6627B00DA11D661F829F58
:103030002227B00DA11D621F739FB00DA11D621F3D
:10304000839FA00D611D221F749F3327A00D611D5A
:10305000231F849F600D211D822F762F6A2F11243C
:103060009F5750408AF0E1F088234AF0EE0FFF1F8F
:10307000BB1F661F771F881F91505040A9F79E3FC6
:10308000510570F05CCFA6CF5F3FECF3983EDCF3C8
:10309000869577956795B795F795E7959F5FC1F703
:1030A000FE2B880F911D9695879597F9089523DF3C
:1030B000880B990B0895629FD001739FF001829F46
:1030C000E00DF11D649FE00DF11D929FF00D839FB7
:1030D000F00D749FF00D659FF00D9927729FB00D54
:1030E000E11DF91F639FB00DE11DF91FBD01CF0167
:1030F00011240895A1E21A2EAA1BBB1BFD010DC0CD
:10310000AA1FBB1FEE1FFF1FA217B307E407F50797
:1031100020F0A21BB30BE40BF50B661F771F881F73
:10312000991F1A9469F760957095809590959B0109
:10313000AC01BD01CF01089597FB092E05260ED0E5
:1031400057FD04D0D7DF0AD0001C38F450954095C5
:10315000309521953F4F4F4F5F4F0895F6F790956B
:103160008095709561957F4F8F4F9F4F0895EE0F1B
:10317000FF1F0590F491E02D099410E0C8ECD0E019
:1031800004C0FE010E94B9182296CA3CD107C9F7B3
:04319000F894FFCFE1
:10319400424D503038350052656164206661696C77
:1031A40000004F4B004154002D2D2D2D2D2D2D2D84
:1031B4002D2D2D2D2D2D2D2D2D2D2D2D2D2D2D2D3B
:1031C4002D2D2D2D2D2D2D2D2D2D2D2D0053656EB9
:1031D400736F723A202020202020200044726976E8
:1031E4006572205665723A20202000556E6971750B
:1031F400652049443A20202020004D617820566102
:103204006C75653A202020200020685061004D69CB
:103214006E2056616C75653A20202020005265733B
:103224006F6C7574696F6E3A20202000507265735C
:10323400737572653A20202020006E616E00696EFD
:1032440066006F7666002E000A0B0C0D0904050655
:103254000714004E04640000000000D203D50000EF
:10326400000000310DC70DC70CF80CD80C210D005F
:1032740000000078114711001109111E112F1100CF
:00000001FF
